:1000000012C021C020C01FC01EC01DC01CC01BC00C
:100010001AC019C018C017C016C015C014C013C02C
:1000200012C0D5C010C011241FBECFE5D4E0DEBF82
:10003000CDBF10E0A0E6B0E001C01D92AE38B10720
:10004000E1F73ED2ACC2DCCFCF93DF931F92CDB7A6
:10005000DEB7898382B390E2892782BB89818111CF
:1000600006C082B3805882BB8091650088BB0F9028
:10007000DF91CF910895CF92DF92EF92FF920F938D
:100080001F93D0928500C09284001093800000934B
:100090007F00F0926300E092620043D22051310968
:1000A00041095109CA01B90122E030E040E050E0C5
:1000B00038D220B911B8109288001F910F91FF908B
:1000C000EF90DF90CF90089591E090938800209179
:1000D0006200309163002617370748F420916200D0
:1000E00030916300309361002093600004C07093EE
:1000F00061006093600091E09093890090936400A8
:100100008093860085EA86BF089591E090938800E9
:1001100020916200309163002617370748F4209140
:10012000620030916300309383002093820004C00A
:10013000709383006093820092E090938900909383
:1001400064008093860085EA86BF089591E09093CD
:10015000880020916200309163002617370748F429
:100160002091620030916300309361002093600021
:1001700004C0709361006093600020916200309130
:1001800063002417350748F4209162003091630022
:10019000309383002093820004C0509383004093E7
:1001A000820093E09093890091E0909364008093A3
:1001B000860085EA86BF08955093850040938400A9
:1001C000880F82B96111109A85EC86BF08951F923D
:1001D0000F920FB60F9211242F933F934F935F937B
:1001E0006F937F938F939F93AF93BF93EF93FF93FF
:1001F00081B1887F80937E0080917E00883609F4EB
:10020000E6C040F5803309F43AC190F4883109F42E
:1002100064C038F4883009F448C0803109F445C01E
:1002200037C1803209F42BC1883209F456C030C17D
:10023000803509F487C038F4803409F496C08834D6
:1002400009F41DC125C1883509F49EC0803609F422
:10025000BEC01EC1883909F410C190F4803809F479
:10026000BBC038F4803709F4B2C0883709F4AFC096
:100270000FC1883809F401C1803909F4ADC008C143
:10028000803B09F4D8C038F4803A09F4C5C0883AF4
:1002900009F4D1C0FDC0803C09F4EFC0883C09F4EA
:1002A000ECC0883B09F4CBC0F3C08091640081307E
:1002B00061F0823009F0E1C010928D0010928C0044
:1002C00080918600880F8160D7C010928D001092B7
:1002D0008C0080918600880FCFC020918C003091D7
:1002E0008D00809160009091610028173907B1F46A
:1002F00080918900833021F482E080936400CDC036
:10030000E0918400F0918500309711F080E009952C
:1003100085E986BF06B604FCFDCF56C0E0917F009C
:10032000F091800080918C0090918D009C012F5F56
:100330003F4F30938D0020938C00E80FF91F808190
:1003400083B920C0E0917F00F091800080918C0003
:1003500090918D009C012F5F3F4F30938D00209333
:100360008C00E80FF91F83B1808320918C003091BD
:100370008D008091820090918300019728173907A2
:1003800009F07BC085E88AC0E0917F00F091800091
:1003900080918C0090918D009C012F5F3F4F309396
:1003A0008D0020938C00E80FF91F83B18083E091CA
:1003B0008400F0918500309711F080E0099585E97F
:1003C00086BF06B604FCFDCF1092880068C010926C
:1003D0008D0010928C0051C020918C0030918D00C6
:1003E00080916200909163002817390708F045C09A
:1003F000E0917F00F091800080918C0090918D00C1
:100400009C012F5F3F4F30938D0020938C00E80FAD
:10041000F91F83B1808331C080918C0090918D0051
:1004200080938700E0918400F0918500309729F156
:1004300080E0099522C010928D0010928C002091CE
:100440008C0030918D00809162009091630028179C
:10045000390798F4E0917F00F091800080918C0042
:1004600090918D009C012F5F3F4F30938D00209322
:100470008C00E80FF91F808183B985EC0FC0E091F3
:100480008400F0918500309719F080917E000995E5
:1004900085E986BF06B604FCFDCF85EA86BFFF91DD
:1004A000EF91BF91AF919F918F917F916F915F91EC
:1004B0004F913F912F910F900FBE0F901F90189565
:1004C0008FEF81BBBA9A14BA95B385BB84E2C82E6C
:1004D00080E0D82E99E1E92EF12C05E610E020EA23
:1004E00036E841E050E060E074E284EF90E0C3DD84
:1004F0007894A60160E080E15FDE80E492E4AFE002
:10050000B0E020E40197A109B1090097A105B10568
:10051000C9F782B3822782BB80E492E4AFE0B0E007
:10052000F1CF052E97FB16F400940FD057FD05D0A0
:1005300014D007FC02D046F408C050954095309581
:1005400021953F4F4F4F5F4F08959095809570953F
:1005500061957F4F8F4F9F4F0895A1E21A2EAA1BDE
:10056000BB1BFD010DC0AA1FBB1FEE1FFF1FA21763
:10057000B307E407F50720F0A21BB30BE40BF50B60
:10058000661F771F881F991F1A9469F760957095E9
:10059000809590959B01AC01BD01CF010895F89421
:0205A000FFCF8B
:00000001FF
